{
  "_format": "hh-sol-artifact-1",
  "contractName": "Token100AlefDevopsV2",
  "sourceName": "contracts/Token100AlefDevops.sol",
  "abi": [
    {
      "inputs": [
        {
          "internalType": "address",
          "name": "spender",
          "type": "address"
        },
        {
          "internalType": "uint256",
          "name": "allowance",
          "type": "uint256"
        },
        {
          "internalType": "uint256",
          "name": "needed",
          "type": "uint256"
        }
      ],
      "name": "ERC20InsufficientAllowance",
      "type": "error"
    },
    {
      "inputs": [
        {
          "internalType": "address",
          "name": "sender",
          "type": "address"
        },
        {
          "internalType": "uint256",
          "name": "balance",
          "type": "uint256"
        },
        {
          "internalType": "uint256",
          "name": "needed",
          "type": "uint256"
        }
      ],
      "name": "ERC20InsufficientBalance",
      "type": "error"
    },
    {
      "inputs": [
        {
          "internalType": "address",
          "name": "approver",
          "type": "address"
        }
      ],
      "name": "ERC20InvalidApprover",
      "type": "error"
    },
    {
      "inputs": [
        {
          "internalType": "address",
          "name": "receiver",
          "type": "address"
        }
      ],
      "name": "ERC20InvalidReceiver",
      "type": "error"
    },
    {
      "inputs": [
        {
          "internalType": "address",
          "name": "sender",
          "type": "address"
        }
      ],
      "name": "ERC20InvalidSender",
      "type": "error"
    },
    {
      "inputs": [
        {
          "internalType": "address",
          "name": "spender",
          "type": "address"
        }
      ],
      "name": "ERC20InvalidSpender",
      "type": "error"
    },
    {
      "inputs": [],
      "name": "InvalidInitialization",
      "type": "error"
    },
    {
      "inputs": [],
      "name": "NotInitializing",
      "type": "error"
    },
    {
      "inputs": [
        {
          "internalType": "address",
          "name": "owner",
          "type": "address"
        }
      ],
      "name": "OwnableInvalidOwner",
      "type": "error"
    },
    {
      "inputs": [
        {
          "internalType": "address",
          "name": "account",
          "type": "address"
        }
      ],
      "name": "OwnableUnauthorizedAccount",
      "type": "error"
    },
    {
      "anonymous": false,
      "inputs": [
        {
          "indexed": true,
          "internalType": "address",
          "name": "owner",
          "type": "address"
        },
        {
          "indexed": true,
          "internalType": "address",
          "name": "spender",
          "type": "address"
        },
        {
          "indexed": false,
          "internalType": "uint256",
          "name": "value",
          "type": "uint256"
        }
      ],
      "name": "Approval",
      "type": "event"
    },
    {
      "anonymous": false,
      "inputs": [
        {
          "indexed": false,
          "internalType": "uint64",
          "name": "version",
          "type": "uint64"
        }
      ],
      "name": "Initialized",
      "type": "event"
    },
    {
      "anonymous": false,
      "inputs": [
        {
          "indexed": true,
          "internalType": "address",
          "name": "previousOwner",
          "type": "address"
        },
        {
          "indexed": true,
          "internalType": "address",
          "name": "newOwner",
          "type": "address"
        }
      ],
      "name": "OwnershipTransferred",
      "type": "event"
    },
    {
      "anonymous": false,
      "inputs": [
        {
          "indexed": true,
          "internalType": "address",
          "name": "from",
          "type": "address"
        },
        {
          "indexed": true,
          "internalType": "address",
          "name": "to",
          "type": "address"
        },
        {
          "indexed": false,
          "internalType": "uint256",
          "name": "value",
          "type": "uint256"
        }
      ],
      "name": "Transfer",
      "type": "event"
    },
    {
      "inputs": [],
      "name": "COOLDOWN_TIME",
      "outputs": [
        {
          "internalType": "uint256",
          "name": "",
          "type": "uint256"
        }
      ],
      "stateMutability": "view",
      "type": "function"
    },
    {
      "inputs": [],
      "name": "MAX_SUPPLY",
      "outputs": [
        {
          "internalType": "uint256",
          "name": "",
          "type": "uint256"
        }
      ],
      "stateMutability": "view",
      "type": "function"
    },
    {
      "inputs": [
        {
          "internalType": "address",
          "name": "owner",
          "type": "address"
        },
        {
          "internalType": "address",
          "name": "spender",
          "type": "address"
        }
      ],
      "name": "allowance",
      "outputs": [
        {
          "internalType": "uint256",
          "name": "",
          "type": "uint256"
        }
      ],
      "stateMutability": "view",
      "type": "function"
    },
    {
      "inputs": [
        {
          "internalType": "address",
          "name": "spender",
          "type": "address"
        },
        {
          "internalType": "uint256",
          "name": "value",
          "type": "uint256"
        }
      ],
      "name": "approve",
      "outputs": [
        {
          "internalType": "bool",
          "name": "",
          "type": "bool"
        }
      ],
      "stateMutability": "nonpayable",
      "type": "function"
    },
    {
      "inputs": [
        {
          "internalType": "address",
          "name": "account",
          "type": "address"
        }
      ],
      "name": "balanceOf",
      "outputs": [
        {
          "internalType": "uint256",
          "name": "",
          "type": "uint256"
        }
      ],
      "stateMutability": "view",
      "type": "function"
    },
    {
      "inputs": [
        {
          "internalType": "uint256",
          "name": "amount",
          "type": "uint256"
        }
      ],
      "name": "burn",
      "outputs": [],
      "stateMutability": "nonpayable",
      "type": "function"
    },
    {
      "inputs": [],
      "name": "decimals",
      "outputs": [
        {
          "internalType": "uint8",
          "name": "",
          "type": "uint8"
        }
      ],
      "stateMutability": "view",
      "type": "function"
    },
    {
      "inputs": [],
      "name": "initialize",
      "outputs": [],
      "stateMutability": "nonpayable",
      "type": "function"
    },
    {
      "inputs": [
        {
          "internalType": "address",
          "name": "",
          "type": "address"
        }
      ],
      "name": "lastMintTime",
      "outputs": [
        {
          "internalType": "uint256",
          "name": "",
          "type": "uint256"
        }
      ],
      "stateMutability": "view",
      "type": "function"
    },
    {
      "inputs": [],
      "name": "name",
      "outputs": [
        {
          "internalType": "string",
          "name": "",
          "type": "string"
        }
      ],
      "stateMutability": "view",
      "type": "function"
    },
    {
      "inputs": [],
      "name": "owner",
      "outputs": [
        {
          "internalType": "address",
          "name": "",
          "type": "address"
        }
      ],
      "stateMutability": "view",
      "type": "function"
    },
    {
      "inputs": [],
      "name": "publicMint",
      "outputs": [],
      "stateMutability": "nonpayable",
      "type": "function"
    },
    {
      "inputs": [],
      "name": "renounceOwnership",
      "outputs": [],
      "stateMutability": "nonpayable",
      "type": "function"
    },
    {
      "inputs": [],
      "name": "symbol",
      "outputs": [
        {
          "internalType": "string",
          "name": "",
          "type": "string"
        }
      ],
      "stateMutability": "view",
      "type": "function"
    },
    {
      "inputs": [],
      "name": "totalSupply",
      "outputs": [
        {
          "internalType": "uint256",
          "name": "",
          "type": "uint256"
        }
      ],
      "stateMutability": "view",
      "type": "function"
    },
    {
      "inputs": [
        {
          "internalType": "address",
          "name": "to",
          "type": "address"
        },
        {
          "internalType": "uint256",
          "name": "value",
          "type": "uint256"
        }
      ],
      "name": "transfer",
      "outputs": [
        {
          "internalType": "bool",
          "name": "",
          "type": "bool"
        }
      ],
      "stateMutability": "nonpayable",
      "type": "function"
    },
    {
      "inputs": [
        {
          "internalType": "address",
          "name": "from",
          "type": "address"
        },
        {
          "internalType": "address",
          "name": "to",
          "type": "address"
        },
        {
          "internalType": "uint256",
          "name": "value",
          "type": "uint256"
        }
      ],
      "name": "transferFrom",
      "outputs": [
        {
          "internalType": "bool",
          "name": "",
          "type": "bool"
        }
      ],
      "stateMutability": "nonpayable",
      "type": "function"
    },
    {
      "inputs": [
        {
          "internalType": "address",
          "name": "newOwner",
          "type": "address"
        }
      ],
      "name": "transferOwnership",
      "outputs": [],
      "stateMutability": "nonpayable",
      "type": "function"
    }
  ],
  "bytecode": "0x608060405234801561001057600080fd5b50611f12806100206000396000f3fe608060405234801561001057600080fd5b50600436106101165760003560e01c806370a08231116100a25780638da5cb5b116100715780638da5cb5b146102ab57806395d89b41146102c9578063a9059cbb146102e7578063dd62ed3e14610317578063f2fde38b1461034757610116565b806370a0823114610249578063715018a6146102795780637d263245146102835780638129fc1c146102a157610116565b806326092b83116100e957806326092b83146101b7578063313ce567146101c157806332cb6b0c146101df57806342966c68146101fd5780636aa71d181461021957610116565b806306fdde031461011b578063095ea7b31461013957806318160ddd1461016957806323b872dd14610187575b600080fd5b610123610363565b6040516101309190611556565b60405180910390f35b610153600480360381019061014e9190611611565b610404565b604051610160919061166c565b60405180910390f35b610171610427565b60405161017e9190611696565b60405180910390f35b6101a1600480360381019061019c91906116b1565b61043f565b6040516101ae919061166c565b60405180910390f35b6101bf61046e565b005b6101c96105e8565b6040516101d69190611720565b60405180910390f35b6101e76105f1565b6040516101f49190611696565b60405180910390f35b6102176004803603810190610212919061173b565b6105fe565b005b610233600480360381019061022e9190611768565b61060b565b6040516102409190611696565b60405180910390f35b610263600480360381019061025e9190611768565b610623565b6040516102709190611696565b60405180910390f35b61028161067a565b005b61028b61068e565b6040516102989190611696565b60405180910390f35b6102a9610695565b005b6102b36108c0565b6040516102c091906117a4565b60405180910390f35b6102d16108f8565b6040516102de9190611556565b60405180910390f35b61030160048036038101906102fc9190611611565b610999565b60405161030e919061166c565b60405180910390f35b610331600480360381019061032c91906117bf565b6109bc565b60405161033e9190611696565b60405180910390f35b610361600480360381019061035c9190611768565b610a51565b005b6060600061036f610ad7565b90508060030180546103809061182e565b80601f01602080910402602001604051908101604052809291908181526020018280546103ac9061182e565b80156103f95780601f106103ce576101008083540402835291602001916103f9565b820191906000526020600020905b8154815290600101906020018083116103dc57829003601f168201915b505050505091505090565b60008061040f610aff565b905061041c818585610b07565b600191505092915050565b600080610432610ad7565b9050806002015491505090565b60008061044a610aff565b9050610457858285610b19565b610462858585610bae565b60019150509392505050565b620151806000803373ffffffffffffffffffffffffffffffffffffffff1673ffffffffffffffffffffffffffffffffffffffff16815260200190815260200160002054426104bc919061188e565b10156104fd576040517f08c379a00000000000000000000000000000000000000000000000000000000081526004016104f49061190e565b60405180910390fd5b68056bc75e2d6310000061050f6105e8565b600a61051b9190611a61565b60016105279190611aac565b61052f610427565b6105399190611aee565b111561057a576040517f08c379a000000000000000000000000000000000000000000000000000000000815260040161057190611b6e565b60405180910390fd5b426000803373ffffffffffffffffffffffffffffffffffffffff1673ffffffffffffffffffffffffffffffffffffffff168152602001908152602001600020819055506105e6336105c96105e8565b600a6105d59190611a61565b60016105e19190611aac565b610ca2565b565b60006012905090565b68056bc75e2d6310000081565b6106083382610d24565b50565b60006020528060005260406000206000915090505481565b60008061062e610ad7565b90508060000160008473ffffffffffffffffffffffffffffffffffffffff1673ffffffffffffffffffffffffffffffffffffffff16815260200190815260200160002054915050919050565b610682610da6565b61068c6000610e2d565b565b6201518081565b600061069f610f04565b905060008160000160089054906101000a900460ff1615905060008260000160009054906101000a900467ffffffffffffffff1690506000808267ffffffffffffffff161480156106ed5750825b9050600060018367ffffffffffffffff16148015610722575060003073ffffffffffffffffffffffffffffffffffffffff163b145b905081158015610730575080155b15610767576040517ff92ee8a900000000000000000000000000000000000000000000000000000000815260040160405180910390fd5b60018560000160006101000a81548167ffffffffffffffff021916908367ffffffffffffffff16021790555083156107b75760018560000160086101000a81548160ff0219169083151502179055505b61082b6040518060400160405280601581526020017f546f6b656e31303020416c65664465766f7073563200000000000000000000008152506040518060400160405280600681526020017f5441443130300000000000000000000000000000000000000000000000000000815250610f2c565b61083433610f42565b61085d336108406105e8565b600a61084c9190611a61565b60326108589190611aac565b610ca2565b83156108b95760008560000160086101000a81548160ff0219169083151502179055507fc7f505b2f371ae2175ee4913f4499e1f2633a7b5936321eed1cdaeb6115181d260016040516108b09190611be7565b60405180910390a15b5050505050565b6000806108cb610f56565b90508060000160009054906101000a900473ffffffffffffffffffffffffffffffffffffffff1691505090565b60606000610904610ad7565b90508060040180546109159061182e565b80601f01602080910402602001604051908101604052809291908181526020018280546109419061182e565b801561098e5780601f106109635761010080835404028352916020019161098e565b820191906000526020600020905b81548152906001019060200180831161097157829003601f168201915b505050505091505090565b6000806109a4610aff565b90506109b1818585610bae565b600191505092915050565b6000806109c7610ad7565b90508060010160008573ffffffffffffffffffffffffffffffffffffffff1673ffffffffffffffffffffffffffffffffffffffff16815260200190815260200160002060008473ffffffffffffffffffffffffffffffffffffffff1673ffffffffffffffffffffffffffffffffffffffff1681526020019081526020016000205491505092915050565b610a59610da6565b600073ffffffffffffffffffffffffffffffffffffffff168173ffffffffffffffffffffffffffffffffffffffff1603610acb5760006040517f1e4fbdf7000000000000000000000000000000000000000000000000000000008152600401610ac291906117a4565b60405180910390fd5b610ad481610e2d565b50565b60007f52c63247e1f47db19d5ce0460030c497f067ca4cebf71ba98eeadabe20bace00905090565b600033905090565b610b148383836001610f7e565b505050565b6000610b2584846109bc565b90507fffffffffffffffffffffffffffffffffffffffffffffffffffffffffffffffff811015610ba85781811015610b98578281836040517ffb8f41b2000000000000000000000000000000000000000000000000000000008152600401610b8f93929190611c02565b60405180910390fd5b610ba784848484036000610f7e565b5b50505050565b600073ffffffffffffffffffffffffffffffffffffffff168373ffffffffffffffffffffffffffffffffffffffff1603610c205760006040517f96c6fd1e000000000000000000000000000000000000000000000000000000008152600401610c1791906117a4565b60405180910390fd5b600073ffffffffffffffffffffffffffffffffffffffff168273ffffffffffffffffffffffffffffffffffffffff1603610c925760006040517fec442f05000000000000000000000000000000000000000000000000000000008152600401610c8991906117a4565b60405180910390fd5b610c9d838383611164565b505050565b600073ffffffffffffffffffffffffffffffffffffffff168273ffffffffffffffffffffffffffffffffffffffff1603610d145760006040517fec442f05000000000000000000000000000000000000000000000000000000008152600401610d0b91906117a4565b60405180910390fd5b610d2060008383611164565b5050565b600073ffffffffffffffffffffffffffffffffffffffff168273ffffffffffffffffffffffffffffffffffffffff1603610d965760006040517f96c6fd1e000000000000000000000000000000000000000000000000000000008152600401610d8d91906117a4565b60405180910390fd5b610da282600083611164565b5050565b610dae610aff565b73ffffffffffffffffffffffffffffffffffffffff16610dcc6108c0565b73ffffffffffffffffffffffffffffffffffffffff1614610e2b57610def610aff565b6040517f118cdaa7000000000000000000000000000000000000000000000000000000008152600401610e2291906117a4565b60405180910390fd5b565b6000610e37610f56565b905060008160000160009054906101000a900473ffffffffffffffffffffffffffffffffffffffff169050828260000160006101000a81548173ffffffffffffffffffffffffffffffffffffffff021916908373ffffffffffffffffffffffffffffffffffffffff1602179055508273ffffffffffffffffffffffffffffffffffffffff168173ffffffffffffffffffffffffffffffffffffffff167f8be0079c531659141344cd1fd0a4f28419497f9722a3daafe3b4186f6b6457e060405160405180910390a3505050565b60007ff0c57e16840df040f15088dc2f81fe391c3923bec73e23a9662efc9c229c6a00905090565b610f346113a3565b610f3e82826113e3565b5050565b610f4a6113a3565b610f5381611420565b50565b60007f9016d09d72d40fdae2fd8ceac6b6234c7706214fd39c1cd1e609a0528c199300905090565b6000610f88610ad7565b9050600073ffffffffffffffffffffffffffffffffffffffff168573ffffffffffffffffffffffffffffffffffffffff1603610ffc5760006040517fe602df05000000000000000000000000000000000000000000000000000000008152600401610ff391906117a4565b60405180910390fd5b600073ffffffffffffffffffffffffffffffffffffffff168473ffffffffffffffffffffffffffffffffffffffff160361106e5760006040517f94280d6200000000000000000000000000000000000000000000000000000000815260040161106591906117a4565b60405180910390fd5b828160010160008773ffffffffffffffffffffffffffffffffffffffff1673ffffffffffffffffffffffffffffffffffffffff16815260200190815260200160002060008673ffffffffffffffffffffffffffffffffffffffff1673ffffffffffffffffffffffffffffffffffffffff16815260200190815260200160002081905550811561115d578373ffffffffffffffffffffffffffffffffffffffff168573ffffffffffffffffffffffffffffffffffffffff167f8c5be1e5ebec7d5bd14f71427d1e84f3dd0314c0f7b2291e5b200ac8c7c3b925856040516111549190611696565b60405180910390a35b5050505050565b600061116e610ad7565b9050600073ffffffffffffffffffffffffffffffffffffffff168473ffffffffffffffffffffffffffffffffffffffff16036111c457818160020160008282546111b89190611aee565b9250508190555061129d565b60008160000160008673ffffffffffffffffffffffffffffffffffffffff1673ffffffffffffffffffffffffffffffffffffffff16815260200190815260200160002054905082811015611253578481846040517fe450d38c00000000000000000000000000000000000000000000000000000000815260040161124a93929190611c02565b60405180910390fd5b8281038260000160008773ffffffffffffffffffffffffffffffffffffffff1673ffffffffffffffffffffffffffffffffffffffff16815260200190815260200160002081905550505b600073ffffffffffffffffffffffffffffffffffffffff168373ffffffffffffffffffffffffffffffffffffffff16036112e857818160020160008282540392505081905550611338565b818160000160008573ffffffffffffffffffffffffffffffffffffffff1673ffffffffffffffffffffffffffffffffffffffff168152602001908152602001600020600082825401925050819055505b8273ffffffffffffffffffffffffffffffffffffffff168473ffffffffffffffffffffffffffffffffffffffff167fddf252ad1be2c89b69c2b068fc378daa952ba7f163c4a11628f55a4df523b3ef846040516113959190611696565b60405180910390a350505050565b6113ab6114a6565b6113e1576040517fd7e6bcf800000000000000000000000000000000000000000000000000000000815260040160405180910390fd5b565b6113eb6113a3565b60006113f5610ad7565b9050828160030190816114089190611e0a565b508181600401908161141a9190611e0a565b50505050565b6114286113a3565b600073ffffffffffffffffffffffffffffffffffffffff168173ffffffffffffffffffffffffffffffffffffffff160361149a5760006040517f1e4fbdf700000000000000000000000000000000000000000000000000000000815260040161149191906117a4565b60405180910390fd5b6114a381610e2d565b50565b60006114b0610f04565b60000160089054906101000a900460ff16905090565b600081519050919050565b600082825260208201905092915050565b60005b838110156115005780820151818401526020810190506114e5565b60008484015250505050565b6000601f19601f8301169050919050565b6000611528826114c6565b61153281856114d1565b93506115428185602086016114e2565b61154b8161150c565b840191505092915050565b60006020820190508181036000830152611570818461151d565b905092915050565b600080fd5b600073ffffffffffffffffffffffffffffffffffffffff82169050919050565b60006115a88261157d565b9050919050565b6115b88161159d565b81146115c357600080fd5b50565b6000813590506115d5816115af565b92915050565b6000819050919050565b6115ee816115db565b81146115f957600080fd5b50565b60008135905061160b816115e5565b92915050565b6000806040838503121561162857611627611578565b5b6000611636858286016115c6565b9250506020611647858286016115fc565b9150509250929050565b60008115159050919050565b61166681611651565b82525050565b6000602082019050611681600083018461165d565b92915050565b611690816115db565b82525050565b60006020820190506116ab6000830184611687565b92915050565b6000806000606084860312156116ca576116c9611578565b5b60006116d8868287016115c6565b93505060206116e9868287016115c6565b92505060406116fa868287016115fc565b9150509250925092565b600060ff82169050919050565b61171a81611704565b82525050565b60006020820190506117356000830184611711565b92915050565b60006020828403121561175157611750611578565b5b600061175f848285016115fc565b91505092915050565b60006020828403121561177e5761177d611578565b5b600061178c848285016115c6565b91505092915050565b61179e8161159d565b82525050565b60006020820190506117b96000830184611795565b92915050565b600080604083850312156117d6576117d5611578565b5b60006117e4858286016115c6565b92505060206117f5858286016115c6565b9150509250929050565b7f4e487b7100000000000000000000000000000000000000000000000000000000600052602260045260246000fd5b6000600282049050600182168061184657607f821691505b602082108103611859576118586117ff565b5b50919050565b7f4e487b7100000000000000000000000000000000000000000000000000000000600052601160045260246000fd5b6000611899826115db565b91506118a4836115db565b92508282039050818111156118bc576118bb61185f565b5b92915050565b7f5761697420323468206265666f7265206d696e74696e6720616761696e000000600082015250565b60006118f8601d836114d1565b9150611903826118c2565b602082019050919050565b60006020820190508181036000830152611927816118eb565b9050919050565b60008160011c9050919050565b6000808291508390505b6001851115611985578086048111156119615761196061185f565b5b60018516156119705780820291505b808102905061197e8561192e565b9450611945565b94509492505050565b60008261199e5760019050611a5a565b816119ac5760009050611a5a565b81600181146119c257600281146119cc576119fb565b6001915050611a5a565b60ff8411156119de576119dd61185f565b5b8360020a9150848211156119f5576119f461185f565b5b50611a5a565b5060208310610133831016604e8410600b8410161715611a305782820a905083811115611a2b57611a2a61185f565b5b611a5a565b611a3d848484600161193b565b92509050818404811115611a5457611a5361185f565b5b81810290505b9392505050565b6000611a6c826115db565b9150611a7783611704565b9250611aa47fffffffffffffffffffffffffffffffffffffffffffffffffffffffffffffffff848461198e565b905092915050565b6000611ab7826115db565b9150611ac2836115db565b9250828202611ad0816115db565b91508282048414831517611ae757611ae661185f565b5b5092915050565b6000611af9826115db565b9150611b04836115db565b9250828201905080821115611b1c57611b1b61185f565b5b92915050565b7f4d617820737570706c7920657863656564656400000000000000000000000000600082015250565b6000611b586013836114d1565b9150611b6382611b22565b602082019050919050565b60006020820190508181036000830152611b8781611b4b565b9050919050565b6000819050919050565b600067ffffffffffffffff82169050919050565b6000819050919050565b6000611bd1611bcc611bc784611b8e565b611bac565b611b98565b9050919050565b611be181611bb6565b82525050565b6000602082019050611bfc6000830184611bd8565b92915050565b6000606082019050611c176000830186611795565b611c246020830185611687565b611c316040830184611687565b949350505050565b7f4e487b7100000000000000000000000000000000000000000000000000000000600052604160045260246000fd5b60008190508160005260206000209050919050565b60006020601f8301049050919050565b600082821b905092915050565b600060088302611cca7fffffffffffffffffffffffffffffffffffffffffffffffffffffffffffffffff82611c8d565b611cd48683611c8d565b95508019841693508086168417925050509392505050565b6000611d07611d02611cfd846115db565b611bac565b6115db565b9050919050565b6000819050919050565b611d2183611cec565b611d35611d2d82611d0e565b848454611c9a565b825550505050565b600090565b611d4a611d3d565b611d55818484611d18565b505050565b5b81811015611d7957611d6e600082611d42565b600181019050611d5b565b5050565b601f821115611dbe57611d8f81611c68565b611d9884611c7d565b81016020851015611da7578190505b611dbb611db385611c7d565b830182611d5a565b50505b505050565b600082821c905092915050565b6000611de160001984600802611dc3565b1980831691505092915050565b6000611dfa8383611dd0565b9150826002028217905092915050565b611e13826114c6565b67ffffffffffffffff811115611e2c57611e2b611c39565b5b611e36825461182e565b611e41828285611d7d565b600060209050601f831160018114611e745760008415611e62578287015190505b611e6c8582611dee565b865550611ed4565b601f198416611e8286611c68565b60005b82811015611eaa57848901518255600182019150602085019450602081019050611e85565b86831015611ec75784890151611ec3601f891682611dd0565b8355505b6001600288020188555050505b50505050505056fea264697066735822122003b850eb44e28a645964053a2d264ba70223d810191be89cfc70ba6ede89827b64736f6c63430008180033",
  "linkReferences": {},
  "deployedLinkReferences": {}
}